{
  "contractName": "CounterContract",
  "abi": [
    {
      "anonymous": false,
      "inputs": [
        {
          "indexed": false,
          "internalType": "uint256",
          "name": "_value",
          "type": "uint256"
        }
      ],
      "name": "incrEvent",
      "type": "event"
    },
    {
      "constant": false,
      "inputs": [],
      "name": "initializer",
      "outputs": [],
      "payable": false,
      "stateMutability": "nonpayable",
      "type": "function"
    },
    {
      "constant": false,
      "inputs": [],
      "name": "increment",
      "outputs": [],
      "payable": false,
      "stateMutability": "nonpayable",
      "type": "function"
    },
    {
      "constant": false,
      "inputs": [],
      "name": "reset",
      "outputs": [
        {
          "internalType": "string",
          "name": "",
          "type": "string"
        }
      ],
      "payable": false,
      "stateMutability": "nonpayable",
      "type": "function"
    },
    {
      "constant": true,
      "inputs": [],
      "name": "fetchCurrentValue",
      "outputs": [
        {
          "internalType": "uint256",
          "name": "",
          "type": "uint256"
        }
      ],
      "payable": false,
      "stateMutability": "view",
      "type": "function"
    }
  ],
  "bytecode": "0x608060405234801561001057600080fd5b506101d8806100206000396000f3fe608060405234801561001057600080fd5b506004361061004c5760003560e01c80639ce110d714610051578063d09de08a1461005b578063d826f88f14610065578063f29735e6146100e8575b600080fd5b610059610106565b005b61006361010f565b005b61006d610156565b6040518080602001828103825283818151815260200191508051906020019080838360005b838110156100ad578082015181840152602081019050610092565b50505050905090810190601f1680156100da5780820380516001836020036101000a031916815260200191505b509250505060405180910390f35b6100f061019a565b6040518082815260200191505060405180910390f35b60008081905550565b6001600054016000819055507f41ec651c18b927c3ffe59d703732c4e40c9318437191d7e11aa094f8e9f4c1dd6000546040518082815260200191505060405180910390a1565b6060600080819055506040518060400160405280601d81526020017f696e6356617220686173206265656e20726573657420746f207a65726f000000815250905090565b6000805490509056fea265627a7a72315820bdba10f0d5d711d8bbe0a31071eb503b77626b043d50d4d9bb993228da0639f164736f6c63430005100032",
  "source": "pragma solidity ^0.5.16;\n\ncontract CounterContract{\n\nuint incVar;\nevent incrEvent(uint _value); //incremenrt\n\nfunction initializer()  public {\n  incVar =0;\n}\n\nfunction increment()  public {\n  incVar = incVar + 1;\n  emit incrEvent(incVar);  \n}\n\nfunction reset()  public returns(string memory) {\n  incVar = 0;\n  return \"incVar has been reset to zero\";\n}\n\nfunction fetchCurrentValue()  view public returns(uint) {\n  return incVar;\n \n}\n\n\n\n}",
  "sourcePath": "/Users/conduent/28june/initiateWeb3Transaction/contracts/CounterContract.sol",
  "compiler": {
    "name": "solc",
    "version": "0.5.16+commit.9c3226ce.Emscripten.clang"
  },
  "schemaVersion": "3.4.0",
  "updatedAt": "2021-06-28T17:45:55.805Z",
  "networkType": "ethereum",
  "devdoc": {
    "methods": {}
  },
  "userdoc": {
    "methods": {}
  }
}